{
  "transactions": [
    {
      "hash": "0x1dbda3bbeb45116c4f5ed1cc982db91b8624fbd40a4a6f20df2e1f80a2ae884f",
      "transactionType": "CREATE",
      "contractName": "ERC20SwapperV2",
      "contractAddress": "0x0C38fC8477E54FF0cb1171C62Bf65318F859ef9c",
      "function": null,
      "arguments": null,
      "transaction": {
        "type": "0x02",
        "from": "0xeda4e72077e8df4fd8e2267add8c0cff68382dd5",
        "gas": "0xfa4aa",
        "value": "0x0",
        "data": "0x60a06040523060805234801561001457600080fd5b50608051610d5061003e600039600081816105540152818161057d01526106c30152610d506000f3fe6080604052600436106100865760003560e01c80637a2a0456116100595780637a2a0456146101185780638129fc1c1461012b5780638da5cb5b14610140578063ad3cb1cc14610187578063f2fde38b146101b857600080fd5b80634f1ef2861461008b57806352d1902d146100a057806354fd4d50146100c8578063715018a614610103575b600080fd5b61009e610099366004610ac9565b6101d8565b005b3480156100ac57600080fd5b506100b56101f7565b6040519081526020015b60405180910390f35b3480156100d457600080fd5b506100f6604051806040016040528060028152602001613b1960f11b81525081565b6040516100bf9190610baf565b34801561010f57600080fd5b5061009e610214565b6100b5610126366004610be2565b610228565b34801561013757600080fd5b5061009e6103e7565b34801561014c57600080fd5b507f9016d09d72d40fdae2fd8ceac6b6234c7706214fd39c1cd1e609a0528c199300546040516001600160a01b0390911681526020016100bf565b34801561019357600080fd5b506100f6604051806040016040528060058152602001640352e302e360dc1b81525081565b3480156101c457600080fd5b5061009e6101d3366004610c0c565b610506565b6101e0610549565b6101e9826105ee565b6101f382826105f6565b5050565b60006102016106b8565b50600080516020610cfb83398151915290565b61021c610701565b610226600061075c565b565b60006102326107cd565b346000036102535760405163f31d9d2b60e01b815260040160405180910390fd5b6040805161010081018252730d500b1d8e8ef31e21c99d1db9a6444d3adf127081526001600160a01b0385166020820152610bb89181019190915233606082015273e592427a0aece92de3edee1f18e0157c0586156490600090608081016102bd426105dc610c27565b815260200134815260200185815260200160006001600160a01b03168152509050816001600160a01b031663414bf38934836040518363ffffffff1660e01b815260040161030b9190610c48565b60206040518083038185885af1158015610329573d6000803e3d6000fd5b50505050506040513d601f19601f8201168201806040525081019061034e9190610cc5565b92508383101561037157604051634c92040160e11b815260040160405180910390fd5b8234866001600160a01b03167fd0dfdc42f329395b5b942c700951e54f587bd4bb1f893019dd09d857c2b5ad7f876040516103ae91815260200190565b60405180910390a450506103e160017f9b779b17422d0df92223018b32b4d1fa46e071723d6817e2486d003becc55f0055565b92915050565b7ff0c57e16840df040f15088dc2f81fe391c3923bec73e23a9662efc9c229c6a008054600160401b810460ff16159067ffffffffffffffff1660008115801561042d5750825b905060008267ffffffffffffffff16600114801561044a5750303b155b905081158015610458575080155b156104765760405163f92ee8a960e01b815260040160405180910390fd5b845467ffffffffffffffff1916600117855583156104a057845460ff60401b1916600160401b1785555b6104a93361083d565b6104b161084e565b6104b9610856565b83156104ff57845460ff60401b19168555604051600181527fc7f505b2f371ae2175ee4913f4499e1f2633a7b5936321eed1cdaeb6115181d29060200160405180910390a15b5050505050565b61050e610701565b6001600160a01b03811661053d57604051631e4fbdf760e01b8152600060048201526024015b60405180910390fd5b6105468161075c565b50565b306001600160a01b037f00000000000000000000000000000000000000000000000000000000000000001614806105d057507f00000000000000000000000000000000000000000000000000000000000000006001600160a01b03166105c4600080516020610cfb833981519152546001600160a01b031690565b6001600160a01b031614155b156102265760405163703e46dd60e11b815260040160405180910390fd5b610546610701565b816001600160a01b03166352d1902d6040518163ffffffff1660e01b8152600401602060405180830381865afa925050508015610650575060408051601f3d908101601f1916820190925261064d91810190610cc5565b60015b61067857604051634c9c8ce360e01b81526001600160a01b0383166004820152602401610534565b600080516020610cfb83398151915281146106a957604051632a87526960e21b815260048101829052602401610534565b6106b38383610866565b505050565b306001600160a01b037f000000000000000000000000000000000000000000000000000000000000000016146102265760405163703e46dd60e11b815260040160405180910390fd5b336107337f9016d09d72d40fdae2fd8ceac6b6234c7706214fd39c1cd1e609a0528c199300546001600160a01b031690565b6001600160a01b0316146102265760405163118cdaa760e01b8152336004820152602401610534565b7f9016d09d72d40fdae2fd8ceac6b6234c7706214fd39c1cd1e609a0528c19930080546001600160a01b031981166001600160a01b03848116918217845560405192169182907f8be0079c531659141344cd1fd0a4f28419497f9722a3daafe3b4186f6b6457e090600090a3505050565b7f9b779b17422d0df92223018b32b4d1fa46e071723d6817e2486d003becc55f0080546001190161081157604051633ee5aeb560e01b815260040160405180910390fd5b60029055565b60017f9b779b17422d0df92223018b32b4d1fa46e071723d6817e2486d003becc55f0055565b6108456108bc565b61054681610905565b6102266108bc565b61085e6108bc565b61022661090d565b61086f82610915565b6040516001600160a01b038316907fbc7cd75a20ee27fd9adebab32041f755214dbc6bffa90cc0225b39da2e5c2d3b90600090a28051156108b4576106b3828261097a565b6101f36109f0565b7ff0c57e16840df040f15088dc2f81fe391c3923bec73e23a9662efc9c229c6a0054600160401b900460ff1661022657604051631afcd79f60e31b815260040160405180910390fd5b61050e6108bc565b6108176108bc565b806001600160a01b03163b60000361094b57604051634c9c8ce360e01b81526001600160a01b0382166004820152602401610534565b600080516020610cfb83398151915280546001600160a01b0319166001600160a01b0392909216919091179055565b6060600080846001600160a01b0316846040516109979190610cde565b600060405180830381855af49150503d80600081146109d2576040519150601f19603f3d011682016040523d82523d6000602084013e6109d7565b606091505b50915091506109e7858383610a0f565b95945050505050565b34156102265760405163b398979f60e01b815260040160405180910390fd5b606082610a2457610a1f82610a6e565b610a67565b8151158015610a3b57506001600160a01b0384163b155b15610a6457604051639996b31560e01b81526001600160a01b0385166004820152602401610534565b50805b9392505050565b805115610a7e5780518082602001fd5b604051630a12f52160e11b815260040160405180910390fd5b80356001600160a01b0381168114610aae57600080fd5b919050565b634e487b7160e01b600052604160045260246000fd5b60008060408385031215610adc57600080fd5b610ae583610a97565b9150602083013567ffffffffffffffff80821115610b0257600080fd5b818501915085601f830112610b1657600080fd5b813581811115610b2857610b28610ab3565b604051601f8201601f19908116603f01168101908382118183101715610b5057610b50610ab3565b81604052828152886020848701011115610b6957600080fd5b8260208601602083013760006020848301015280955050505050509250929050565b60005b83811015610ba6578181015183820152602001610b8e565b50506000910152565b6020815260008251806020840152610bce816040850160208701610b8b565b601f01601f19169190910160400192915050565b60008060408385031215610bf557600080fd5b610bfe83610a97565b946020939093013593505050565b600060208284031215610c1e57600080fd5b610a6782610a97565b808201808211156103e157634e487b7160e01b600052601160045260246000fd5b60006101008201905060018060a01b0380845116835280602085015116602084015262ffffff6040850151166040840152806060850151166060840152506080830151608083015260a083015160a083015260c083015160c083015260e0830151610cbe60e08401826001600160a01b03169052565b5092915050565b600060208284031215610cd757600080fd5b5051919050565b60008251610cf0818460208701610b8b565b919091019291505056fe360894a13ba1a3210667c828492db98dca3e2076cc3735a920a3ca505d382bbca2646970667358221220ed9cc289264642e3ea5a7027b70180aee90209b0ec99ded6c5d84a3ad0fb4e4d64736f6c63430008180033",
        "nonce": "0x2b",
        "accessList": []
      },
      "additionalContracts": [],
      "isFixedGasLimit": false
    },
    {
      "hash": "0xbd309a31afcb4339426f9f1e97eddedacb2b38d3f106f7c406cbf9fe20f13075",
      "transactionType": "CALL",
      "contractName": null,
      "contractAddress": "0x0B5D5fD4c3D78838d485f62c0959F74D187DeFc3",
      "function": "upgradeToAndCall(address,bytes)",
      "arguments": [
        "0x0C38fC8477E54FF0cb1171C62Bf65318F859ef9c",
        "0x"
      ],
      "transaction": {
        "type": "0x02",
        "from": "0xeda4e72077e8df4fd8e2267add8c0cff68382dd5",
        "to": "0x0b5d5fd4c3d78838d485f62c0959f74d187defc3",
        "gas": "0xcaa5",
        "value": "0x0",
        "data": "0x4f1ef2860000000000000000000000000c38fc8477e54ff0cb1171c62bf65318f859ef9c00000000000000000000000000000000000000000000000000000000000000400000000000000000000000000000000000000000000000000000000000000000",
        "nonce": "0x2c",
        "accessList": []
      },
      "additionalContracts": [],
      "isFixedGasLimit": false
    }
  ],
  "receipts": [
    {
      "transactionHash": "0x1dbda3bbeb45116c4f5ed1cc982db91b8624fbd40a4a6f20df2e1f80a2ae884f",
      "transactionIndex": "0x54",
      "blockHash": "0x566242fb3783ecf226882fa567b974560b5c694d79bf7c4cdc6ad77eed921422",
      "blockNumber": "0x37be946",
      "from": "0xEdA4e72077E8df4fD8e2267add8c0cfF68382Dd5",
      "to": null,
      "cumulativeGasUsed": "0x70420b",
      "gasUsed": "0xc095d",
      "contractAddress": "0x0C38fC8477E54FF0cb1171C62Bf65318F859ef9c",
      "logs": [
        {
          "address": "0x0000000000000000000000000000000000001010",
          "topics": [
            "0x4dfe1bbbcf077ddc3e01291eea2d5c70c2b422b415d95645b9adcfd678cb1d63",
            "0x0000000000000000000000000000000000000000000000000000000000001010",
            "0x000000000000000000000000eda4e72077e8df4fd8e2267add8c0cff68382dd5",
            "0x000000000000000000000000ec20607aa654d823dd01beb8780a44863c57ed07"
          ],
          "data": "0x00000000000000000000000000000000000000000000000000541312ea017c000000000000000000000000000000000000000000000000010167a7109050eea4000000000000000000000000000000000000000000000018486e25316b8d80cc000000000000000000000000000000000000000000000001011393fda64f72a400000000000000000000000000000000000000000000001848c23844558efccc",
          "blockHash": "0x566242fb3783ecf226882fa567b974560b5c694d79bf7c4cdc6ad77eed921422",
          "blockNumber": "0x37be946",
          "transactionHash": "0x1dbda3bbeb45116c4f5ed1cc982db91b8624fbd40a4a6f20df2e1f80a2ae884f",
          "transactionIndex": "0x54",
          "logIndex": "0x112",
          "removed": false
        }
      ],
      "status": "0x1",
      "logsBloom": "0x00000000000000000000000400000000000000000000000000000000000000040000000000000000000000000000000000008000000000000000000000000000000000000000000000000000000000800000000000000000000100000000000000000000000004000002000000000000000000000000000080000000000000000000000000000000000000040000000000000000000000000000000000000000200000000000000000000000000000000000000000000000000000000000004000000000000000000001000000000000000000000000000000100000000000000000000002000000000000000000000000000000000000000000000000100000",
      "type": "0x2",
      "effectiveGasPrice": "0x6fc23ac2d"
    },
    {
      "transactionHash": "0xbd309a31afcb4339426f9f1e97eddedacb2b38d3f106f7c406cbf9fe20f13075",
      "transactionIndex": "0x55",
      "blockHash": "0x566242fb3783ecf226882fa567b974560b5c694d79bf7c4cdc6ad77eed921422",
      "blockNumber": "0x37be946",
      "from": "0xEdA4e72077E8df4fD8e2267add8c0cfF68382Dd5",
      "to": "0x0B5D5fD4c3D78838d485f62c0959F74D187DeFc3",
      "cumulativeGasUsed": "0x70d4c2",
      "gasUsed": "0x92b7",
      "contractAddress": null,
      "logs": [
        {
          "address": "0x0B5D5fD4c3D78838d485f62c0959F74D187DeFc3",
          "topics": [
            "0xbc7cd75a20ee27fd9adebab32041f755214dbc6bffa90cc0225b39da2e5c2d3b",
            "0x0000000000000000000000000c38fc8477e54ff0cb1171c62bf65318f859ef9c"
          ],
          "data": "0x",
          "blockHash": "0x566242fb3783ecf226882fa567b974560b5c694d79bf7c4cdc6ad77eed921422",
          "blockNumber": "0x37be946",
          "transactionHash": "0xbd309a31afcb4339426f9f1e97eddedacb2b38d3f106f7c406cbf9fe20f13075",
          "transactionIndex": "0x55",
          "logIndex": "0x113",
          "removed": false
        },
        {
          "address": "0x0000000000000000000000000000000000001010",
          "topics": [
            "0x4dfe1bbbcf077ddc3e01291eea2d5c70c2b422b415d95645b9adcfd678cb1d63",
            "0x0000000000000000000000000000000000000000000000000000000000001010",
            "0x000000000000000000000000eda4e72077e8df4fd8e2267add8c0cff68382dd5",
            "0x000000000000000000000000ec20607aa654d823dd01beb8780a44863c57ed07"
          ],
          "data": "0x000000000000000000000000000000000000000000000000000400ca9597f400000000000000000000000000000000000000000000000001011393fda431cd4b00000000000000000000000000000000000000000000001848c23844558efccc000000000000000000000000000000000000000000000001010f93330e99d94b00000000000000000000000000000000000000000000001848c6390eeb26f0cc",
          "blockHash": "0x566242fb3783ecf226882fa567b974560b5c694d79bf7c4cdc6ad77eed921422",
          "blockNumber": "0x37be946",
          "transactionHash": "0xbd309a31afcb4339426f9f1e97eddedacb2b38d3f106f7c406cbf9fe20f13075",
          "transactionIndex": "0x55",
          "logIndex": "0x114",
          "removed": false
        }
      ],
      "status": "0x1",
      "logsBloom": "0x000000000000000000000004000000004000000000000000000000000000000c0000000000000000000000000000000000008000000000000000000000000000000200000000000000000000000002800000000000000000000100000000000000000000000004000002000000100000000000000000400080000000000000000000000000000000000000040000000000000100000000000000000000000000200000000000000000000000000000000000000000000000000000000000004000000020000000000001000040000000000000000000000000100000000000000000000002000000000000000000000000000000000000000000000000100000",
      "type": "0x2",
      "effectiveGasPrice": "0x6fc23ac2d"
    }
  ],
  "libraries": [],
  "pending": [],
  "returns": {},
  "timestamp": 1719022850,
  "chain": 137,
  "multi": false,
  "commit": "1c3df6e"
}